:100000000C942A000C9447000C9447000C94470071
:100010000C94E2050C94A7050C9447000C946F0512
:100020000C9447000C9439050C9400050C94C504FD
:100030000C9447000C9447000C9447000C94470024
:100040000C9447000C9447000C9447000C94470014
:100050000C94470011241FBECFE5D8E0DEBFCDBF12
:1000600010E0A0E6B0E0E0E0F1E102C005900D9202
:10007000A836B107D9F720E0A8E6B0E001C01D928C
:10008000A038B207E1F70E94EA030C947E080C94B2
:100090000000813059F018F0823079F014C087B137
:1000A000806487B987B18F7787B90DC087B18F7B9F
:1000B00087B987B18F7787B906C087B1806487B960
:1000C00087B1806887B986B18F7D86B986B18F7D0B
:1000D00086B986B1877F86B986B1816086B986B1D7
:1000E000826086B986B1846086B986B1806886B937
:1000F000089561157105A9F0803298F497B1907E4A
:1001000097B997B1892B87B986B1806486B9349B3A
:10011000FECF86B1806186B984B195B1FB01918330
:1001200080830895813019F0823089F0089541E08C
:1001300060E083E00E945C0141E061E083E00E94B6
:100140005C0141E063E081E00E945C01089541E0D0
:1001500065E082E00E945C0141E066E082E00E948E
:100160005C0141E065E083E00E945C01089581301C
:1001700019F0823009F10895613019F0623061F0B0
:1001800015C041E060E083E00E94DE0140E061E0F4
:1001900083E00E94DE010AC040E060E083E00E944C
:1001A000DE0141E061E083E00E94DE0141E063E0C6
:1001B00081E00E94DE010895613019F0623061F043
:1001C00015C041E065E082E00E94DE0140E066E0AB
:1001D00082E00E94DE010AC040E065E082E00E9409
:1001E000DE0141E066E082E00E94DE0141E065E080
:1001F00083E00E94DE010895CF93C42F813019F06F
:10020000823009F146C0613019F0623061F015C0EA
:1002100041E060E083E00E94DE0140E061E083E0D5
:100220000E94DE010AC040E060E083E00E94DE013F
:1002300041E061E083E00E94DE010E943F048C2FD8
:100240000E945F0426C0613019F0623061F015C071
:1002500041E065E082E00E94DE0140E066E082E08D
:100260000E94DE010AC040E065E082E00E94DE01FB
:1002700041E066E082E00E94DE010E944C046C2FA7
:1002800070E080E090E00E942E0748EE53E00E946C
:100290007B04CF910895813019F0823039F00895B0
:1002A00040E063E081E00E94DE01089540E065E007
:1002B00083E00E94DE010895843008F07EC068303B
:1002C00008F07BC0423008F078C0813019F130F07E
:1002D0008230E1F1833009F455C00895442319F0C8
:1002E000413069F008952AB381E090E002C0880FA0
:1002F000991F6A95E2F7809582238ABB08952AB3F5
:1003000081E090E002C0880F991F6A95E2F7822B86
:100310008ABB0895442319F0413069F0089527B34A
:1003200081E090E002C0880F991F6A95E2F78095FE
:10033000822387BB089527B381E090E002C0880F35
:10034000991F6A95E2F7822B87BB0895442319F021
:10035000413069F0089524B381E090E002C0880F35
:10036000991F6A95E2F78095822384BB089524B390
:1003700081E090E002C0880F991F6A95E2F7822B16
:1003800084BB0895442319F0413069F0089521B3E6
:1003900081E090E002C0880F991F6A95E2F780958E
:1003A000822381BB089521B381E090E002C0880FD1
:1003B000991F6A95E2F7822B81BB0895843008F07B
:1003C0007EC0683008F07BC0423008F078C08130D1
:1003D00019F130F08230E1F1833009F455C008950D
:1003E000442319F0413069F008952BB381E090E087
:1003F00002C0880F991F6A95E2F7809582238BBB14
:1004000008952BB381E090E002C0880F991F6A9590
:10041000E2F7822B8BBB0895442319F0413069F039
:10042000089528B381E090E002C0880F991F6A9573
:10043000E2F78095822388BB089528B381E090E09D
:1004400002C0880F991F6A95E2F7822B88BB089536
:10045000442319F0413069F0089525B381E090E01C
:1004600002C0880F991F6A95E2F78095822385BBA9
:10047000089525B381E090E002C0880F991F6A9526
:10048000E2F7822B85BB0895442319F0413069F0CF
:10049000089522B381E090E002C0880F991F6A9509
:1004A000E2F78095822382BB089522B381E090E039
:1004B00002C0880F991F6A95E2F7822B82BB0895CC
:1004C000CF93C82F80FD06C040E064E082E00E9428
:1004D000DE0105C041E064E082E00E94DE01C1FD72
:1004E00006C040E065E082E00E94DE0105C041E018
:1004F00065E082E00E94DE01C2FD06C040E066E0E9
:1005000082E00E94DE0105C041E066E082E00E94D8
:10051000DE01C3FD06C040E067E082E00E94DE012C
:1005200005C041E067E082E00E94DE01CF910895BE
:1005300041E062E082E00E94DE018FE99FE00197E6
:10054000F1F700C0000040E062E082E00E94DE01BE
:100550000895CF93C82F41E063E082E00E94DE015E
:1005600040E060E083E00E94DE018C2F82958F7076
:100570000E9460020E9498028C2F0E9460020E94DA
:100580009802CF910895CF93C82F40E063E082E0B6
:100590000E94DE0140E060E083E00E94DE018C2FDB
:1005A00082958F700E9460020E9498028C2F0E9498
:1005B00060020E949802CF91089541E063E082E0DA
:1005C0000E945C0141E060E083E00E945C0141E048
:1005D00062E082E00E945C0141E064E082E00E940F
:1005E0005C0141E065E082E00E945C0141E066E080
:1005F00082E00E945C0141E067E082E00E945C01D1
:100600002FE785EB91E0215080409040E1F700C05A
:10061000000040E063E082E00E94DE0140E060E034
:1006200083E00E94DE0182E00E9460020E94980244
:1006300088E20E94C30220EF2A95F1F78FE00E9422
:10064000C30280EF8A95F1F781E00E94C3028FE335
:100650009FE10197F1F700C0000086E00E94C3020D
:1006600008950F931F93CF93009729F40CC00E9415
:10067000A902CF5F02C08C01C0E0F801EC0FF11DB0
:1006800080818111F4CFCF911F910F91089581E066
:100690000E94C3028FE39FE10197F1F700C00000C1
:1006A0000895CF92DF92EF92FF920F931F938B01E9
:1006B0009C01672B682B692B49F580E30E94A902F6
:1006C00045C0DC01CB01880F991FAA1FBB1F6C011D
:1006D0007D01CC0CDD1CEE1CFF1CCC0CDD1CEE1CCB
:1006E000FF1CC80ED91EEA1EFB1EC901B8012AE074
:1006F00030E040E050E00E944D086C0D7D1D8E1DE5
:100700009F1D022F132F242F352F04C061E070E0AE
:1007100080E090E0011511052105310591F62AE0F0
:1007200030E040E050E00E944D08E22EF32E042F0E
:10073000152F80E3860F0E94A9026E2D7F2D802F3A
:10074000912F613071058105910549F71F910F9136
:10075000FF90EF90DF90CF90089540E060E080E060
:100760000E945C0181E00E94490008950F931F934D
:10077000CF93DF9300D0CDB7DEB7009721F18C0186
:10078000BE016F5F7F4F80E00E94790029813A812E
:10079000A8E8B3E10E946F089B01AC01012E1AE0AA
:1007A00056954795379527951A95D1F7102DADECAD
:1007B000BCEC0E946F0896958795969587959695BF
:1007C0008795F80180830F900F90DF91CF911F9153
:1007D0000F9108950E94AD030E94DD0281E00E9406
:1007E000920088E690E00E94B60380E690E00E94C6
:1007F00031036091680070E080E090E00E94510356
:1008000080916800843120F481E00E944B012BC06C
:1008100061E081E00E94B700809168008A3130F485
:1008200042E361E081E00E94FC001DC08F3130F4A2
:1008300046E461E081E00E94FC0015C0843230F49F
:100840004AE561E081E00E94FC000DC0893230F48D
:1008500044E661E081E00E94FC0005C044E661E0FE
:1008600081E00E94FC002FEF83ED90E32150804057
:100870009040E1F700C000000E944703B2CF83B769
:10088000806483BF83B7886083BF83B78F7E83BF55
:1008900083B7806283BF08958FB58E7F8FBD8FB57C
:1008A00082608FBD8EB588608EBD8EB580618EBD35
:1008B0008FB58F7B8FBD8FB580688FBD08958536CE
:1008C000C8F4282F30E0322F222736952795369509
:1008D0002795ABE7B4E10E946F0896958795815004
:1008E0008CBF83B7816083BF83B7826083BF83B7C8
:1008F0008B7F83BF0895CF92DF92EF92FF92CF93C9
:10090000DF936B017C01EA0120E030E048EC52E427
:100910000E948806181694F19E0140E050E060E9BC
:1009200070ED83E090E00E944D082150310937BD01
:1009300026BD66B577B56F5F7F4F80E090E00E947F
:100940002E07A70196010E94E00720E030E048EC66
:1009500052E40E948D0620E030E040E85FE30E9410
:100960001B060E94FF067BBD6ABD8EB581608EBDF1
:100970008EB582608EBD8EB58B7F8EBDDF91CF919F
:10098000FF90EF90DF90CF9008951F920F920FB6D7
:100990000F9211242F933F934F935F936F937F9305
:1009A0008F939F93AF93BF93EF93FF9380916B00CF
:1009B00090916C00019690936C0080936B00813D48
:1009C000934069F481E782BF10926C0010926B0033
:1009D000E0916F00F0917000309709F00995FF9158
:1009E000EF91BF91AF919F918F917F916F915F91A7
:1009F0004F913F912F910F900FBE0F901F90189520
:100A00001F920F920FB60F9211242F933F934F9383
:100A10005F936F937F938F939F93AF93BF93EF9366
:100A2000FF938091690090916A00019690936A000B
:100A300080936900883E934059F410926A001092A6
:100A40006900E0916D00F0916E00309709F0099512
:100A5000FF91EF91BF91AF919F918F917F916F9196
:100A60005F914F913F912F910F900FBE0F901F906C
:100A700018951F920F920FB60F9211242F933F9348
:100A80004F935F936F937F938F939F93AF93BF9396
:100A9000EF93FF93809173008F5F80937300843096
:100AA00069F480E79FE29DBD8CBD10927300E091D8
:100AB0007600F0917700309709F00995FF91EF915A
:100AC000BF91AF919F918F917F916F915F914F9166
:100AD0003F912F910F900FBE0F901F9018951F926E
:100AE0000F920FB60F9211242F933F934F935F9362
:100AF0006F937F938F939F93AF93BF93EF93FF93E6
:100B00008091710090917200019690937200809391
:100B10007100049759F41092720010927100E091E4
:100B20007400F0917500309709F00995FF91EF91ED
:100B3000BF91AF919F918F917F916F915F914F91F5
:100B40003F912F910F900FBE0F901F9018951F92FD
:100B50000F920FB60F9211242F933F934F935F93F1
:100B60006F937F938F939F93AF93BF93EF93FF9375
:100B700080917A0090917B00019690937B00809306
:100B80007A00813D934069F481E784BD10927B0037
:100B900010927A00E0917E00F0917F00309709F08A
:100BA0000995FF91EF91BF91AF919F918F917F91A7
:100BB0006F915F914F913F912F910F900FBE0F90CA
:100BC0001F9018951F920F920FB60F9211242F931A
:100BD0003F934F935F936F937F938F939F93AF93C5
:100BE000BF93EF93FF9380917800909179000196E5
:100BF0009093790080937800883E934059F4109246
:100C0000790010927800E0917C00F0917D0030979F
:100C100009F00995FF91EF91BF91AF919F918F914D
:100C20007F916F915F914F913F912F910F900FBEE8
:100C30000F901F9018955058BB27AA270E94330683
:100C40000C94A6070E94980738F00E949F0720F096
:100C500039F49F3F19F426F40C9495070EF4E095AF
:100C6000E7FB0C948F07E92F0E94B70758F3BA17D8
:100C7000620773078407950720F079F4A6F50C94B2
:100C8000D9070EF4E0950B2EBA2FA02D0B01B90158
:100C900090010C01CA01A0011124FF27591B99F0F2
:100CA000593F50F4503E68F11A16F040A22F232FFE
:100CB000342F4427585FF3CF469537952795A7954E
:100CC000F0405395C9F77EF41F16BA0B620B730BF5
:100CD000840BBAF09150A1F0FF0FBB1F661F771F66
:100CE000881FC2F70EC0BA0F621F731F841F48F41B
:100CF000879577956795B795F7959E3F08F0B0CFA4
:100D00009395880F08F09927EE0F9795879508958A
:100D10000E946B0708F481E008950E94A1060C94DC
:100D2000A6070E949F0758F00E94980740F029F4F8
:100D30005F3F29F00C948F0751110C94DA070C9443
:100D400095070E94B70768F39923B1F3552391F3F0
:100D5000951B550BBB27AA2762177307840738F02A
:100D60009F5F5F4F220F331F441FAA1FA9F335D087
:100D70000E2E3AF0E0E832D091505040E695001C3B
:100D8000CAF72BD0FE2F29D0660F771F881FBB1FF5
:100D9000261737074807AB07B0E809F0BB0B802DD3
:100DA000BF01FF2793585F4F3AF09E3F510578F0FF
:100DB0000C948F070C94DA075F3FE4F3983ED4F36A
:100DC000869577956795B795F7959F5FC9F7880FD3
:100DD000911D9695879597F90895E1E0660F771F25
:100DE000881FBB1F621773078407BA0720F0621BB6
:100DF000730B840BBA0BEE1F88F7E09508950E94E1
:100E0000BF0788F09F5798F0B92F9927B751B0F0D6
:100E1000E1F0660F771F881F991F1AF0BA95C9F77E
:100E200014C0B13091F00E94D907B1E008950C943C
:100E3000D907672F782F8827B85F39F0B93FCCF3EF
:100E4000869577956795B395D9F73EF490958095FB
:100E5000709561957F4F8F4F9F4F0895E89409C01B
:100E600097FB3EF490958095709561957F4F8F4FDD
:100E70009F4F9923A9F0F92F96E9BB279395F695F3
:100E8000879577956795B795F111F8CFFAF4BB0F71
:100E900011F460FF1BC06F5F7F4F8F4F9F4F16C0D5
:100EA000882311F096E911C0772321F09EE8872F5F
:100EB000762F05C0662371F096E8862F70E060E01B
:100EC0002AF09A95660F771F881FDAF7880F969594
:100ED000879597F90895990F0008550FAA0BE0E838
:100EE000FEEF16161706E807F907C0F012161306EC
:100EF000E407F50798F0621B730B840B950B39F42C
:100F00000A2661F0232B242B252B21F408950A2691
:100F100009F4A140A6958FEF811D811D089597F9D1
:100F20009F6780E870E060E008959FEF80EC08958F
:100F300000240A94161617061806090608950024B8
:100F40000A9412161306140605060895092E039432
:100F5000000C11F4882352F0BB0F40F4BF2B11F4A6
:100F600060FF04C06F5F7F4F8F4F9F4F089557FD05
:100F70009058440F551F59F05F3F71F04795880F07
:100F800097FB991F61F09F3F79F08795089512169E
:100F900013061406551FF2CF4695F1DF08C016164A
:100FA00017061806991FF1CF8695710561050894FB
:100FB0000895E894BB2766277727CB0197F9089512
:100FC0000E94F3070C94A6070E94980738F00E942D
:100FD0009F0720F0952311F00C948F070C94950730
:100FE00011240C94DA070E94B70770F3959FC1F3A0
:100FF000950F50E0551F629FF001729FBB27F00DC7
:10100000B11D639FAA27F00DB11DAA1F649F66271B
:10101000B00DA11D661F829F2227B00DA11D621F6A
:10102000739FB00DA11D621F839FA00D611D221F24
:10103000749F3327A00D611D231F849F600D211D08
:10104000822F762F6A2F11249F5750409AF0F1F08B
:1010500088234AF0EE0FFF1FBB1F661F771F881FF4
:1010600091505040A9F79E3F510580F00C948F0796
:101070000C94DA075F3FE4F3983ED4F386957795B6
:101080006795B795F795E7959F5FC1F7FE2B880F9A
:10109000911D9695879597F90895A1E21A2EAA1B9E
:1010A000BB1BFD010DC0AA1FBB1FEE1FFF1FA21718
:1010B000B307E407F50720F0A21BB30BE40BF50B15
:1010C000661F771F881F991F1A9469F7609570959E
:1010D000809590959B01AC01BD01CF010895A29F21
:1010E000B001B39FC001A39F700D811D1124911DFC
:1010F000B29F700D811D1124911D0895F894FFCFAA
:0811000074656D70203D2000B4
:00000001FF
