:100000000C942A000C9447000C9447000C94470071
:100010000C9422060C94E7050C9447000C94AF0551
:100020000C9447000C9479050C9440050C9405053C
:100030000C9447000C9447000C9447000C94470024
:100040000C9447000C9447000C9447000C94470014
:100050000C94470011241FBECFE5D8E0DEBFCDBF12
:1000600010E0A0E6B0E0E0E1F1E102C005900D9201
:10007000A238B107D9F720E0A2E8B0E001C01D9294
:10008000A939B207E1F70E940C040C9486080C947D
:100090000000843008F07EC0683008F07BC0423039
:1000A00008F078C0813019F130F08230E1F183300E
:1000B00009F455C00895442319F0413069F00895BA
:1000C0002AB381E090E002C0880F991F6A95E2F799
:1000D000809582238ABB08952AB381E090E002C014
:1000E000880F991F6A95E2F7822B8ABB08954423F3
:1000F00019F0413069F0089527B381E090E002C023
:10010000880F991F6A95E2F78095822387BB08952F
:1001100027B381E090E002C0880F991F6A95E2F74B
:10012000822B87BB0895442319F0413069F008956C
:1001300024B381E090E002C0880F991F6A95E2F72E
:100140008095822384BB089524B381E090E002C0AF
:10015000880F991F6A95E2F7822B84BB0895442388
:1001600019F0413069F0089521B381E090E002C0B8
:10017000880F991F6A95E2F78095822381BB0895C5
:1001800021B381E090E002C0880F991F6A95E2F7E1
:10019000822B81BB0895843008F07EC0683008F05F
:1001A0007BC0423008F078C0813019F130F08230E5
:1001B000E1F1833009F455C00895442319F041302A
:1001C00069F008952BB381E090E002C0880F991F79
:1001D0006A95E2F7809582238BBB08952BB381E06B
:1001E00090E002C0880F991F6A95E2F7822B8BBBC3
:1001F0000895442319F0413069F0089528B381E04F
:1002000090E002C0880F991F6A95E2F780958223DB
:1002100088BB089528B381E090E002C0880F991F41
:100220006A95E2F7822B88BB0895442319F0413088
:1002300069F0089525B381E090E002C0880F991F0E
:100240006A95E2F78095822385BB089525B381E006
:1002500090E002C0880F991F6A95E2F7822B85BB58
:100260000895442319F0413069F0089522B381E0E4
:1002700090E002C0880F991F6A95E2F7809582236B
:1002800082BB089522B381E090E002C0880F991FDD
:100290006A95E2F7822B82BB08958430C0F56830FE
:1002A000B0F54115510599F1813089F028F082307F
:1002B000C9F0833011F1089589B390E002C095959B
:1002C00087956A95E2F78170FA018083089586B375
:1002D00090E002C0959587956A95E2F78170FA01E2
:1002E0008083089583B390E002C0959587956A95C1
:1002F000E2F78170FA018083089580B390E002C034
:10030000959587956A95E2F78170FA018083089543
:100310008430A8F5683098F5813089F028F0823073
:10032000C9F0833011F108952BB381E090E002C051
:10033000880F991F6A95E2F7822B8BBB089528B32B
:1003400081E090E002C0880F991F6A95E2F7822B46
:1003500088BB089525B381E090E002C0880F991F03
:100360006A95E2F7822B85BB089522B381E090E085
:1003700002C0880F991F6A95E2F7822B82BB08950D
:1003800040E060E083E00E94490040E061E083E0FB
:100390000E94490040E062E083E00E94490040E0A2
:1003A00063E083E00E94490060E083E00E948801EE
:1003B00061E083E00E94880162E083E00E9488019E
:1003C00063E083E00E94880141E064E083E00E94F2
:1003D000490041E065E083E00E94490041E066E0B9
:1003E00083E00E94490041E067E083E00E94490009
:1003F00041E064E083E00E94CB0041E065E083E0FF
:100400000E94CB0041E066E083E00E94CB0041E027
:1004100067E083E00E94CB0008956F927F928F92F5
:100420009F92AF92BF92CF92DF92EF92FF920F9383
:100430001F93CF93DF93CDB7DEB7A1970FB6F89494
:10044000DEBF0FBECDBF009709F484C05C0183E01E
:100450008D8F8E8F8F8F88A394E0998F95E09A8FE0
:1004600096E09B8F97E09C8F8D8B8E8B8F8B888FE8
:10047000198A91E09A8B92E09B8B8C8B80E1E0E66D
:10048000F0E0DE01119601900D928A95E1F700E00F
:100490005EC0C02ED12CE9E1F0E0EC0FFD1FEC0DA9
:1004A000FD1D8080EDE1F0E0EC0FFD1FEC0DFD1D6A
:1004B000908040E0682D892D0E94CB0083EC99E06C
:1004C0000197F1F700C0000010E037C0E12EF12CD9
:1004D000E1E1F0E0EC0FFD1FEE0DFF1D7080E5E1A6
:1004E000F0E0EC0FFD1FEE0DFF1D6080AE014F5DD3
:1004F0005F4F672D862D0E944D0189A181111CC07F
:1005000007C0AE014F5D5F4F672D862D0E944D01E4
:1005100089A18823B1F3EE0CFF1CEE0CFF1CE1E077
:10052000F0E0EC0FFD1FEE0EFF1EF701EC0DFD1DC0
:100530008081F501808303C01F5F143038F241E0F1
:10054000682D892D0E94CB00143020F00F5F0430FD
:1005500008F49FCFA1960FB6F894DEBF0FBECDBFB3
:10056000DF91CF911F910F91FF90EF90DF90CF908F
:10057000BF90AF909F908F907F906F900895CF9392
:10058000C82F80FD06C040E064E082E00E94CB00FE
:1005900005C041E064E082E00E94CB00C1FD06C0DE
:1005A00040E065E082E00E94CB0005C041E065E0EC
:1005B00082E00E94CB00C2FD06C040E066E082E01F
:1005C0000E94CB0005C041E066E082E00E94CB00C3
:1005D000C3FD06C040E067E082E00E94CB0005C09A
:1005E00041E067E082E00E94CB00CF91089541E0B6
:1005F00061E080E00E94CB008FE99FE00197F1F776
:1006000000C0000040E061E080E00E94CB0008955F
:10061000CF93C82F41E060E080E00E94CB0040E033
:1006200062E081E00E94CB008C2F82958F700E9447
:10063000BF020E94F7028C2F0E94BF020E94F702A5
:10064000CF910895CF93C82F40E060E080E00E94F2
:10065000CB0040E062E081E00E94CB008C2F8295CD
:100660008F700E94BF020E94F7028C2F0E94BF026F
:100670000E94F702CF91089541E060E080E00E947F
:10068000490041E062E081E00E94490041E061E010
:1006900080E00E94490041E064E082E00E9449005D
:1006A00041E065E082E00E94490041E066E082E0CE
:1006B0000E94490041E067E082E00E9449002FE784
:1006C00085EB91E0215080409040E1F700C00000B0
:1006D00040E060E080E00E94CB0040E062E081E02A
:1006E0000E94CB0082E00E94BF020E94F70288E2D3
:1006F0000E94220320EF2A95F1F78FE00E94220347
:1007000080EF8A95F1F781E00E9422038FE39FE159
:100710000197F1F700C0000086E00E9422030895CF
:100720000F931F93CF93009729F40CC00E940803E6
:10073000CF5F02C08C01C0E0F801EC0FF11D808199
:100740008111F4CFCF911F910F91089581E00E9404
:1007500022038FE39FE10197F1F700C000000895A5
:10076000CF92DF92EF92FF920F931F938B019C0128
:10077000672B682B692B49F580E30E94080345C06D
:10078000DC01CB01880F991FAA1FBB1F6C017D01E3
:10079000CC0CDD1CEE1CFF1CCC0CDD1CEE1CFF1C6D
:1007A000C80ED91EEA1EFB1EC901B8012AE030E0BE
:1007B00040E050E00E9464086C0D7D1D8E1D9F1D61
:1007C000022F132F242F352F04C061E070E080E04A
:1007D00090E0011511052105310591F62AE030E080
:1007E00040E050E00E946408E22EF32E042F152F03
:1007F00080E3860F0E9408036E2D7F2D802F912F9E
:10080000613071058105910549F71F910F91FF90A6
:10081000EF90DF90CF900895CF93DF9300D000D07A
:100820001F92CDB7DEB78FEF89830E94C0010E946F
:100830003C0380E790E00E9490032FEF83ED90E36C
:10084000215080409040E1F700C000000E94A603C4
:10085000212CC12CA12C912C812C312C412C512CE0
:100860003201D12CE12CF12CB12CCE0101960E9449
:100870000D0219811F3FC9F300ED010F0A3008F086
:1008800042C0602F70E080E090E00E94B003222020
:10089000C9F020E030E040E251E4C301B2010E941F
:1008A000F7072B013C01602F70E080E090E00E9490
:1008B0006B079B01AC01C301B2010E945C062B01D6
:1008C0003C01A0C020E030E040E251E46D2D7E2DDF
:1008D0008F2D9B2D0E94F7076A837B838C839D83DA
:1008E000602F70E080E090E00E946B079B01AC01FC
:1008F0006A817B818C819D810E945C06D62EE72EC9
:10090000F82EB92E7FC01B3231F01D3221F01A3281
:1009100011F01F3239F4812F0E940803C12E2224C6
:10092000239470C01D3309F05CC02BE2C21669F03D
:100930002C1520F08AE2C81611F13BC09DE2C916C1
:1009400089F02FE2C21641F134C0A30192016D2D4E
:100950007E2D8F2D9B2D0E945C06D62EE72EF82E25
:10096000B92E2BC0A30192016D2D7E2D8F2D9B2DB5
:100970000E945B06D62EE72EF82EB92E1EC0A301CC
:1009800092016D2D7E2D8F2D9B2D0E94F707D62E67
:10099000E72EF82EB92E11C0A30192016D2D7E2DE8
:1009A0008F2D9B2D0E94C806D62EE72EF82EB92E2D
:1009B00004C0DA2CE92CF82CB32C8DE30E94080338
:1009C0006D2D7E2D8F2D9B2D0E943A070E94B00326
:1009D000AD2C9E2C8F2C3B2C212C412C512C3201E8
:1009E00011C0133279F40E94A603212CC12CA12C32
:1009F000912C812C312C412C512C3201D12CE12C09
:100A0000F12CB12C8FEF898330CF1F920F920FB64C
:100A10000F9211242F933F934F935F936F937F9384
:100A20008F939F93AF93BF93EF93FF938091840035
:100A30009091850001969093850080938400813D7C
:100A4000934069F481E782BF109285001092840080
:100A5000E0918800F0918900309709F00995FF91A5
:100A6000EF91BF91AF919F918F917F916F915F9126
:100A70004F913F912F910F900FBE0F901F9018959F
:100A80001F920F920FB60F9211242F933F934F9303
:100A90005F936F937F938F939F93AF93BF93EF93E6
:100AA000FF93809182009091830001969093830040
:100AB00080938200883E934059F4109283001092F4
:100AC0008200E0918600F0918700309709F0099547
:100AD000FF91EF91BF91AF919F918F917F916F9116
:100AE0005F914F913F912F910F900FBE0F901F90EC
:100AF00018951F920F920FB60F9211242F933F93C8
:100B00004F935F936F937F938F939F93AF93BF9315
:100B1000EF93FF9380918C008F5F80938C008430E3
:100B200069F480E79FE29DBD8CBD10928C00E0913E
:100B30008F00F0919000309709F00995FF91EF91A7
:100B4000BF91AF919F918F917F916F915F914F91E5
:100B50003F912F910F900FBE0F901F9018951F92ED
:100B60000F920FB60F9211242F933F934F935F93E1
:100B70006F937F938F939F93AF93BF93EF93FF9365
:100B800080918A0090918B00019690938B008093C6
:100B90008A00049759F410928B0010928A00E09119
:100BA0008D00F0918E00309709F00995FF91EF913B
:100BB000BF91AF919F918F917F916F915F914F9175
:100BC0003F912F910F900FBE0F901F9018951F927D
:100BD0000F920FB60F9211242F933F934F935F9371
:100BE0006F937F938F939F93AF93BF93EF93FF93F5
:100BF000809193009091940001969093940080933B
:100C00009300813D934069F481E784BD1092940084
:100C100010929300E0919700F0919800309709F0BE
:100C20000995FF91EF91BF91AF919F918F917F9126
:100C30006F915F914F913F912F910F900FBE0F9049
:100C40001F9018951F920F920FB60F9211242F9399
:100C50003F934F935F936F937F938F939F93AF9344
:100C6000BF93EF93FF938091910090919200019632
:100C70009093920080939100883E934059F4109293
:100C8000920010929100E0919500F09196003097BB
:100C900009F00995FF91EF91BF91AF919F918F91CD
:100CA0007F916F915F914F913F912F910F900FBE68
:100CB0000F901F9018955058BB27AA270E947306C3
:100CC0000C94BD070E94AF0738F00E94B60720F0D1
:100CD00039F49F3F19F426F40C94AC070EF4E09518
:100CE000E7FB0C94A607E92F0E94CE0758F3BA172A
:100CF000620773078407950720F079F4A6F50C9432
:100D0000F0070EF4E0950B2EBA2FA02D0B01B901C0
:100D100090010C01CA01A0011124FF27591B99F071
:100D2000593F50F4503E68F11A16F040A22F232F7D
:100D3000342F4427585FF3CF469537952795A795CD
:100D4000F0405395C9F77EF41F16BA0B620B730B74
:100D5000840BBAF09150A1F0FF0FBB1F661F771FE5
:100D6000881FC2F70EC0BA0F621F731F841F48F49A
:100D7000879577956795B795F7959E3F08F0B0CF23
:100D80009395880F08F09927EE0F9795879508950A
:100D90000E94DC060C94BD070E94B60758F00E9422
:100DA000AF0740F029F45F3F29F00C94A6075111DA
:100DB0000C94F1070C94AC070E94CE0768F39923BA
:100DC000B1F3552391F3951B550BBB27AA27621747
:100DD0007307840738F09F5F5F4F220F331F441F54
:100DE000AA1FA9F335D00E2E3AF0E0E832D0915088
:100DF0005040E695001CCAF72BD0FE2F29D0660F75
:100E0000771F881FBB1F261737074807AB07B0E8B7
:100E100009F0BB0B802DBF01FF2793585F4F3AF0BD
:100E20009E3F510578F00C94A6070C94F1075F3FA4
:100E3000E4F3983ED4F3869577956795B795F79543
:100E40009F5FC9F7880F911D9695879597F908952B
:100E5000E1E0660F771F881FBB1F621773078407C7
:100E6000BA0720F0621B730B840BBA0BEE1F88F7D6
:100E7000E09508950E94D60788F09F5798F0B92F03
:100E80009927B751B0F0E1F0660F771F881F991FBF
:100E90001AF0BA95C9F714C0B13091F00E94F0076A
:100EA000B1E008950C94F007672F782F8827B85F7A
:100EB00039F0B93FCCF3869577956795B395D9F717
:100EC0003EF490958095709561957F4F8F4F9F4F21
:100ED0000895E89409C097FB3EF49095809570952D
:100EE00061957F4F8F4F9F4F9923A9F0F92F96E976
:100EF000BB279395F695879577956795B795F111EB
:100F0000F8CFFAF4BB0F11F460FF1BC06F5F7F4F87
:100F10008F4F9F4F16C0882311F096E911C0772399
:100F200021F09EE8872F762F05C0662371F096E8A2
:100F3000862F70E060E02AF09A95660F771F881F71
:100F4000DAF7880F9695879597F9089597F99F672F
:100F500080E870E060E008959FEF80EC0895002441
:100F60000A941616170618060906089500240A940E
:100F700012161306140605060895092E0394000C94
:100F800011F4882352F0BB0F40F4BF2B11F460FF23
:100F900004C06F5F7F4F8F4F9F4F089557FD90584C
:100FA000440F551F59F05F3F71F04795880F97FB2D
:100FB000991F61F09F3F79F08795089512161306E7
:100FC0001406551FF2CF4695F1DF08C01616170616
:100FD0001806991FF1CF869571056105089408954B
:100FE000E894BB2766277727CB0197F908950E94DD
:100FF0000A080C94BD070E94AF0738F00E94B6079C
:1010000020F0952311F00C94A6070C94AC07112442
:101010000C94F1070E94CE0770F3959FC1F3950FD2
:1010200050E0551F629FF001729FBB27F00DB11D6C
:10103000639FAA27F00DB11DAA1F649F6627B00DFC
:10104000A11D661F829F2227B00DA11D621F739FE5
:10105000B00DA11D621F839FA00D611D221F749FF3
:101060003327A00D611D231F849F600D211D822F3A
:10107000762F6A2F11249F5750409AF0F1F0882361
:101080004AF0EE0FFF1FBB1F661F771F881F91508E
:101090005040A9F79E3F510580F00C94A6070C9490
:1010A000F1075F3FE4F3983ED4F386957795679513
:1010B000B795F795E7959F5FC1F7FE2B880F911DB8
:1010C0009695879597F90895A1E21A2EAA1BBB1B46
:1010D000FD010DC0AA1FBB1FEE1FFF1FA217B30704
:1010E000E407F50720F0A21BB30BE40BF50B661F1A
:1010F000771F881F991F1A9469F7609570958095DE
:1011000090959B01AC01BD01CF010895F894FFCFEC
:101110003738392F3435362A3132332D23303D2BB1
:1011200023232323202048454C4C4F2023232323D3
:021130000000BD
:00000001FF
