:100000000C942A000C9447000C9447000C94470071
:100010000C94F1050C94B6050C9447000C947E05E5
:100020000C9447000C9448050C940F050C94D404D0
:100030000C9447000C9447000C9447000C94470024
:100040000C9447000C9447000C9447000C94470014
:100050000C94470011241FBECFE5D8E0DEBFCDBF12
:1000600010E0A0E6B0E0E0E0F1E102C005900D9202
:10007000AA37B107D9F720E0AAE7B0E001C01D9286
:10008000A139B207E1F70E9405040C947E080C9494
:100090000000843008F07EC0683008F07BC0423039
:1000A00008F078C0813019F130F08230E1F183300E
:1000B00009F455C00895442319F0413069F00895BA
:1000C0002AB381E090E002C0880F991F6A95E2F799
:1000D000809582238ABB08952AB381E090E002C014
:1000E000880F991F6A95E2F7822B8ABB08954423F3
:1000F00019F0413069F0089527B381E090E002C023
:10010000880F991F6A95E2F78095822387BB08952F
:1001100027B381E090E002C0880F991F6A95E2F74B
:10012000822B87BB0895442319F0413069F008956C
:1001300024B381E090E002C0880F991F6A95E2F72E
:100140008095822384BB089524B381E090E002C0AF
:10015000880F991F6A95E2F7822B84BB0895442388
:1001600019F0413069F0089521B381E090E002C0B8
:10017000880F991F6A95E2F78095822381BB0895C5
:1001800021B381E090E002C0880F991F6A95E2F7E1
:10019000822B81BB0895843008F07EC0683008F05F
:1001A0007BC0423008F078C0813019F130F08230E5
:1001B000E1F1833009F455C00895442319F041302A
:1001C00069F008952BB381E090E002C0880F991F79
:1001D0006A95E2F7809582238BBB08952BB381E06B
:1001E00090E002C0880F991F6A95E2F7822B8BBBC3
:1001F0000895442319F0413069F0089528B381E04F
:1002000090E002C0880F991F6A95E2F780958223DB
:1002100088BB089528B381E090E002C0880F991F41
:100220006A95E2F7822B88BB0895442319F0413088
:1002300069F0089525B381E090E002C0880F991F0E
:100240006A95E2F78095822385BB089525B381E006
:1002500090E002C0880F991F6A95E2F7822B85BB58
:100260000895442319F0413069F0089522B381E0E4
:1002700090E002C0880F991F6A95E2F7809582236B
:1002800082BB089522B381E090E002C0880F991FDD
:100290006A95E2F7822B82BB08958430C0F56830FE
:1002A000B0F54115510599F1813089F028F082307F
:1002B000C9F0833011F1089589B390E002C095959B
:1002C00087956A95E2F78170FA018083089586B375
:1002D00090E002C0959587956A95E2F78170FA01E2
:1002E0008083089583B390E002C0959587956A95C1
:1002F000E2F78170FA018083089580B390E002C034
:10030000959587956A95E2F78170FA018083089543
:100310008430A8F5683098F5813089F028F0823073
:10032000C9F0833011F108952BB381E090E002C051
:10033000880F991F6A95E2F7822B8BBB089528B32B
:1003400081E090E002C0880F991F6A95E2F7822B46
:1003500088BB089525B381E090E002C0880F991F03
:100360006A95E2F7822B85BB089522B381E090E085
:1003700002C0880F991F6A95E2F7822B82BB08950D
:1003800040E060E080E00E94490040E061E080E001
:100390000E94490040E062E080E00E94490040E0A5
:1003A00063E080E00E94490060E080E00E948801F4
:1003B00061E080E00E94880162E080E00E948801A4
:1003C00063E080E00E94880141E060E081E00E94FB
:1003D000490041E061E081E00E94490041E062E0C3
:1003E00081E00E94490041E063E081E00E94490011
:1003F00041E060E081E00E94CB0041E061E081E00B
:100400000E94CB0041E062E081E00E94CB0041E02D
:1004100063E081E00E94CB0008956F927F928F92FB
:100420009F92AF92BF92CF92DF92EF92FF920F9383
:100430001F93CF93DF93CDB7DEB7A1970FB6F89494
:10044000DEBF0FBECDBF009709F47DC05C0181E027
:100450008D8F8E8F8F8F88A3198E8A8F22E02B8F9E
:1004600093E09C8F1D8A1E8A1F8A188E198A8A8B98
:100470002B8B9C8B80E1E1E6F0E0DE011196019090
:100480000D928A95E1F78FEFF501808300E058C067
:10049000C02ED12CE9E1F0E0EC0FFD1FEC0DFD1DAD
:1004A0008080EDE1F0E0EC0FFD1FEC0DFD1D908074
:1004B00040E0682D892D0E94CB0010E037C0E12E6E
:1004C000F12CE1E1F0E0EC0FFD1FEE0DFF1D70805F
:1004D000E5E1F0E0EC0FFD1FEE0DFF1D6080AE01C9
:1004E0004F5D5F4F672D862D0E944D0189A18111BF
:1004F0001CC007C0AE014F5D5F4F672D862D0E9467
:100500004D0189A18823B1F3EE0CFF1CEE0CFF1CFA
:1005100081E090E08C0F9D1FE80EF91EF701EC0DB5
:10052000FD1D8081F501808303C01F5F143038F208
:1005300041E0682D892D0E94CB00143020F00F5F20
:10054000043008F4A5CFA1960FB6F894DEBF0FBE15
:10055000CDBFDF91CF911F910F91FF90EF90DF9072
:10056000CF90BF90AF909F908F907F906F900895A5
:10057000CF93C82F80FD06C040E064E082E00E9477
:10058000CB0005C041E064E082E00E94CB00C1FDE9
:1005900006C040E065E082E00E94CB0005C041E07B
:1005A00065E082E00E94CB00C2FD06C040E066E04C
:1005B00082E00E94CB0005C041E066E082E00E943C
:1005C000CB00C3FD06C040E067E082E00E94CB00A4
:1005D00005C041E067E082E00E94CB00CF91089522
:1005E00041E060E082E00E94CB008FE99FE001974C
:1005F000F1F700C0000040E060E082E00E94CB0024
:100600000895CF93C82F41E061E082E00E94CB00C3
:1006100040E062E082E00E94CB008C2F82958F70D8
:100620000E94B8020E94F0028C2F0E94B8020E9421
:10063000F002CF910895CF93C82F40E061E082E0AF
:100640000E94CB0040E062E082E00E94CB008C2F51
:1006500082958F700E94B8020E94F0028C2F0E9437
:10066000B8020E94F002CF91089541E061E082E07B
:100670000E94490041E062E082E00E94490041E0BE
:1006800060E082E00E94490041E064E082E00E9474
:10069000490041E065E082E00E94490041E066E0F7
:1006A00082E00E94490041E067E082E00E94490048
:1006B0002FE785EB91E0215080409040E1F700C0AA
:1006C000000040E061E082E00E94CB0040E062E098
:1006D00082E00E94CB0082E00E94B8020E94F002F9
:1006E00088E20E941B0320EF2A95F1F78FE00E9419
:1006F0001B0380EF8A95F1F781E00E941B038FE3D3
:100700009FE10197F1F700C0000086E00E941B0303
:1007100008950F931F93CF93009729F40CC00E9464
:100720000103CF5F02C08C01C0E0F801EC0FF11DA6
:1007300080818111F4CFCF911F910F91089581E0B5
:100740000E941B038FE39FE10197F1F700C00000B7
:100750000895CF92DF92EF92FF920F931F938B0138
:100760009C01672B682B692B49F580E30E940103EC
:1007700045C0DC01CB01880F991FAA1FBB1F6C016C
:100780007D01CC0CDD1CEE1CFF1CCC0CDD1CEE1C1A
:10079000FF1CC80ED91EEA1EFB1EC901B8012AE0C3
:1007A00030E040E050E00E945C086C0D7D1D8E1D25
:1007B0009F1D022F132F242F352F04C061E070E0FE
:1007C00080E090E0011511052105310591F62AE040
:1007D00030E040E050E00E945C08E22EF32E042F4F
:1007E000152F80E3860F0E9401036E2D7F2D802F31
:1007F000912F613071058105910549F71F910F9186
:10080000FF90EF90DF90CF9008950E9435030E94F3
:10081000C0010E94AC0480E690E00E940D0280912D
:1008200060008F3FC1F3813361F484EB0E94B40414
:100830000E949F036AE570E080E090E00E94A903B7
:10084000EACF823359F48AE50E94B4040E949F03E0
:1008500060E070E0CB010E94A903DDCF833351F447
:1008600080E00E94B4040E949F0381E790E00E9410
:100870008903D1CF843379F60E94D1040E949F036B
:1008800085E790E00E948903C6CF8FB58E7F8FBD2C
:100890008FB582608FBD8EB588608EBD8EB580614C
:1008A0008EBD8FB58F7B8FBD8FB580688FBD08954E
:1008B000CF92DF92EF92FF92CF93DF936B017C0197
:1008C000EA0120E030E048EC52E40E949706181656
:1008D00094F19E0140E050E060E970ED83E090E02B
:1008E0000E945C082150310937BD26BD66B577B539
:1008F0006F5F7F4F80E090E00E943D07A701960167
:100900000E94EF0720E030E048EC52E40E949C0691
:1009100020E030E040E85FE30E942A060E940E07D4
:100920007BBD6ABD8EB581608EBD8EB582608EBD89
:100930008EB58B7F8EBDDF91CF91FF90EF90DF90D2
:10094000CF9008958EB58E7F8EBD8EB58D7F8EBD76
:100950008EB58B7F8EBD089541E065E083E00E94F7
:1009600049000E9445040895682F70E080E090E0FF
:100970000E943F0720E030E044E353E40E949C06DD
:1009800020E030E040EA50E40E94EF0720E030E051
:1009900040EA50E40E942B0642E350E00E945804D3
:1009A00008950E94A20408951F920F920FB60F920D
:1009B00011242F933F934F935F936F937F938F9364
:1009C0009F93AF93BF93EF93FF9380917C0090919F
:1009D0007D00019690937D0080937C00813D934043
:1009E00069F481E782BF10927D0010927C00E09153
:1009F0008000F0918100309709F00995FF91EF9107
:100A0000BF91AF919F918F917F916F915F914F9126
:100A10003F912F910F900FBE0F901F9018951F922E
:100A20000F920FB60F9211242F933F934F935F9322
:100A30006F937F938F939F93AF93BF93EF93FF93A6
:100A400080917A0090917B00019690937B00809337
:100A50007A00883E934059F410927B0010927A00FD
:100A6000E0917E00F0917F00309709F00995FF91A9
:100A7000EF91BF91AF919F918F917F916F915F9116
:100A80004F913F912F910F900FBE0F901F9018958F
:100A90001F920F920FB60F9211242F933F934F93F3
:100AA0005F936F937F938F939F93AF93BF93EF93D6
:100AB000FF93809184008F5F80938400843069F479
:100AC00080E79FE29DBD8CBD10928400E09187007D
:100AD000F0918800309709F00995FF91EF91BF914F
:100AE000AF919F918F917F916F915F914F913F91C6
:100AF0002F910F900FBE0F901F9018951F920F927D
:100B00000FB60F9211242F933F934F935F936F93E0
:100B10007F938F939F93AF93BF93EF93FF938091B6
:100B200082009091830001969093830080938200CD
:100B3000049759F41092830010928200E09185008E
:100B4000F0918600309709F00995FF91EF91BF91E0
:100B5000AF919F918F917F916F915F914F913F9155
:100B60002F910F900FBE0F901F9018951F920F920C
:100B70000FB60F9211242F933F934F935F936F9370
:100B80007F938F939F93AF93BF93EF93FF93809146
:100B90008B0090918C00019690938C0080938B0039
:100BA000813D934069F481E784BD10928C001092DE
:100BB0008B00E0918F00F0919000309709F009953B
:100BC000FF91EF91BF91AF919F918F917F916F9125
:100BD0005F914F913F912F910F900FBE0F901F90FB
:100BE00018951F920F920FB60F9211242F933F93D7
:100BF0004F935F936F937F938F939F93AF93BF9325
:100C0000EF93FF938091890090918A0001969093D1
:100C10008A0080938900883E934059F410928A009C
:100C200010928900E0918D00F0918E00309709F0CC
:100C30000995FF91EF91BF91AF919F918F917F9116
:100C40006F915F914F913F912F910F900FBE0F9039
:100C50001F9018955058BB27AA270E9442060C9453
:100C6000B5070E94A70738F00E94AE0720F039F4BC
:100C70009F3F19F426F40C94A4070EF4E095E7FBCB
:100C80000C949E07E92F0E94C60758F3BA17620713
:100C900073078407950720F079F4A6F50C94E8070C
:100CA0000EF4E0950B2EBA2FA02D0B01B901900187
:100CB0000C01CA01A0011124FF27591B99F0593FCB
:100CC00050F4503E68F11A16F040A22F232F342F13
:100CD0004427585FF3CF469537952795A795F04061
:100CE0005395C9F77EF41F16BA0B620B730B840B76
:100CF000BAF09150A1F0FF0FBB1F661F771F881F2E
:100D0000C2F70EC0BA0F621F731F841F48F4879585
:100D100077956795B795F7959E3F08F0B0CF939577
:100D2000880F08F09927EE0F9795879508950E94F0
:100D30007A0708F481E008950E94B0060C94B50784
:100D40000E94AE0758F00E94A70740F029F45F3FC9
:100D500029F00C949E0751110C94E9070C94A407F8
:100D60000E94C60768F39923B1F3552391F3951BAD
:100D7000550BBB27AA2762177307840738F09F5FBC
:100D80005F4F220F331F441FAA1FA9F335D00E2E29
:100D90003AF0E0E832D091505040E695001CCAF796
:100DA0002BD0FE2F29D0660F771F881FBB1F261759
:100DB00037074807AB07B0E809F0BB0B802DBF0130
:100DC000FF2793585F4F3AF09E3F510578F00C94FF
:100DD0009E070C94E9075F3FE4F3983ED4F38695B1
:100DE00077956795B795F7959F5FC9F7880F911D20
:100DF0009695879597F90895E1E0660F771F881F0C
:100E0000BB1F621773078407BA0720F0621B730BBE
:100E1000840BBA0BEE1F88F7E09508950E94CE0769
:100E200088F09F5798F0B92F9927B751B0F0E1F0AB
:100E3000660F771F881F991F1AF0BA95C9F714C05B
:100E4000B13091F00E94E807B1E008950C94E807F2
:100E5000672F782F8827B85F39F0B93FCCF3869594
:100E600077956795B395D9F73EF4909580957095F1
:100E700061957F4F8F4F9F4F0895E89409C097FB6E
:100E80003EF490958095709561957F4F8F4F9F4F61
:100E90009923A9F0F92F96E9BB279395F6958795A5
:100EA00077956795B795F111F8CFFAF4BB0F11F468
:100EB00060FF1BC06F5F7F4F8F4F9F4F16C088230F
:100EC00011F096E911C0772321F09EE8872F762F45
:100ED00005C0662371F096E8862F70E060E02AF086
:100EE0009A95660F771F881FDAF7880F9695879572
:100EF00097F90895990F0008550FAA0BE0E8FEEF47
:100F000016161706E807F907C0F012161306E407CD
:100F1000F50798F0621B730B840B950B39F40A26C6
:100F200061F0232B242B252B21F408950A2609F4A4
:100F3000A140A6958FEF811D811D089597F99F67A8
:100F400080E870E060E008959FEF80EC0895002451
:100F50000A941616170618060906089500240A941E
:100F600012161306140605060895092E0394000CA4
:100F700011F4882352F0BB0F40F4BF2B11F460FF33
:100F800004C06F5F7F4F8F4F9F4F089557FD90585C
:100F9000440F551F59F05F3F71F04795880F97FB3D
:100FA000991F61F09F3F79F08795089512161306F7
:100FB0001406551FF2CF4695F1DF08C01616170626
:100FC0001806991FF1CF869571056105089408955B
:100FD000E894BB2766277727CB0197F908950E94ED
:100FE00002080C94B5070E94A70738F00E94AE07CC
:100FF00020F0952311F00C949E070C94A407112463
:101000000C94E9070E94C60770F3959FC1F3950FF2
:1010100050E0551F629FF001729FBB27F00DB11D7C
:10102000639FAA27F00DB11DAA1F649F6627B00D0C
:10103000A11D661F829F2227B00DA11D621F739FF5
:10104000B00DA11D621F839FA00D611D221F749F03
:101050003327A00D611D231F849F600D211D822F4A
:10106000762F6A2F11249F5750409AF0F1F0882371
:101070004AF0EE0FFF1FBB1F661F771F881F91509E
:101080005040A9F79E3F510580F00C949E070C94A8
:10109000E9075F3FE4F3983ED4F38695779567952B
:1010A000B795F795E7959F5FC1F7FE2B880F911DC8
:1010B0009695879597F90895A1E21A2EAA1BBB1B56
:1010C000FD010DC0AA1FBB1FEE1FFF1FA217B30714
:1010D000E407F50720F0A21BB30BE40BF50B661F2A
:1010E000771F881F991F1A9469F7609570958095EE
:1010F00090959B01AC01BD01CF010895F894FFCFFD
:10110000FF3738392F3435362A3132332D23303DED
:0A1110002B2D3930004F4646000039
:00000001FF
